S00C00006D61696E2E7372656373
S113000090439FE590539FE590639FE5007094E5CE
S1130010007086E5009095E5089019E2FAFFFF0A62
S11300207C039FE57C139FE56420A0E3022180E02C
S11300300B0000EB6C039FE50710A0E10020A0E398
S11300406330A0E30080A0E304800DE5D60000EB5C
S1130050000086E5001095E5011011E2FCFFFF0A9F
S1130060E9FFFFEA043090E4043081E4020050E147
S1130070FBFFFFBA0EF0A0E11C0000002500000009
S11300802C0000003C00000055000000630000004C
S1130090790000007F000000810000008A00000059
S11300A08F0000009B000000A2000000A4000000DC
S11300B0AF000000B3000000CD000000D400000039
S11300C0D9000000E7000000EB000000EE00000093
S11300D0F2000000F8000000FA0000000201000035
S11300E01B0100001E010000310100003701000067
S11300F03C01000042010000460100005F010000D5
S1130100630100006C0100006E0100007801000032
S1130110870100008E010000980100009A01000090
S11301209F010000A2010000A9010000B501000028
S1130130B9010000C4010000DA010000E801000078
S1130140FA010000FB0100000E020000140200008E
S113015016020000230200002402000047020000EF
S113016049020000530200005B0200006D0200001F
S113017080020000950200009A020000B202000012
S1130180B4020000C9020000CF020000EE02000029
S1130190F30200000003000007030000080300004E
S11301A01003000011030000170300001D030000EA
S11301B01E030000240300003C0300004A03000067
S11301C04E0300005A03000074030000770300008C
S11301D07A0300007D0300008C030000A8030000E4
S11301E0AB030000B9030000C0030000CA03000011
S11301F0D2030000D3030000D5030000DE03000097
S1130200EA030000EF030000EFBEADDEEFBEADDE9B
S1130210EFBEADDEEFBEADDEEFBEADDEEFBEADDEFA
S1130220EFBEADDEEFBEADDEEFBEADDEEFBEADDEEA
S1130230EFBEADDEEFBEADDEEFBEADDEEFBEADDEDA
S1130240EFBEADDEEFBEADDEEFBEADDEEFBEADDECA
S1130250EFBEADDEEFBEADDEEFBEADDEEFBEADDEBA
S1130260EFBEADDEEFBEADDEEFBEADDEEFBEADDEAA
S1130270EFBEADDEEFBEADDEEFBEADDEEFBEADDE9A
S1130280EFBEADDEEFBEADDEEFBEADDEEFBEADDE8A
S1130290EFBEADDEEFBEADDEEFBEADDEEFBEADDE7A
S11302A0EFBEADDEEFBEADDEEFBEADDEEFBEADDE6A
S11302B0EFBEADDEEFBEADDEEFBEADDEEFBEADDE5A
S11302C0EFBEADDEEFBEADDEEFBEADDEEFBEADDE4A
S11302D0EFBEADDEEFBEADDEEFBEADDEEFBEADDE3A
S11302E0EFBEADDEEFBEADDEEFBEADDEEFBEADDE2A
S11302F0EFBEADDEEFBEADDEEFBEADDEEFBEADDE1A
S1130300EFBEADDEEFBEADDEEFBEADDEEFBEADDE09
S1130310EFBEADDEEFBEADDEEFBEADDEEFBEADDEF9
S1130320EFBEADDEEFBEADDEEFBEADDEEFBEADDEE9
S1130330EFBEADDEEFBEADDEEFBEADDEEFBEADDED9
S1130340EFBEADDEEFBEADDEEFBEADDEEFBEADDEC9
S1130350EFBEADDEEFBEADDEEFBEADDEEFBEADDEB9
S1130360EFBEADDEEFBEADDEEFBEADDEEFBEADDEA9
S1130370EFBEADDEEFBEADDEEFBEADDEEFBEADDE99
S1130380EFBEADDEEFBEADDEEFBEADDEEFBEADDE89
S1130390EFBEADDEEFBEADDE400020FF500020FF1B
S11303A0000020FF78000000080200001CD04DE28D
S11303B014208DE510308DE50C408DE508508DE559
S11303C004608DE500E08DE518509DE5015085E25F
S11303D004500DE5024043E0A44082E0030052E1F2
S11303E0060000CA046190E7005065E2045180E70A
S11303F0010056E10300000A040000CA070000BA25
S11304000000E0E3090000EA0400A0E1070000EABC
S1130410014044E20430A0E1E3FFFFEB030000EA03
S1130420014084E20420A0E1DFFFFFEBFFFFFFEACD
S113043014209DE510309DE50C409DE508509DE598
S113044004609DE500E09DE51CD08DE20EF0A0E186
S1130450000000000000000000000000680400002C
S10B0460000000000000000090
S9030000FC
